:10000000002000101D010000950100009501000076
:1000100000000000000000000000000000000000E0
:10002000000000000000000000000000950100003A
:10003000000000000000000095010000000000002A
:100040009501000095010000950100009501000058
:100050009501000095010000950100009501000048
:100060009501000095010000950100009501000038
:100070009501000095010000950100009501000028
:100080009501000095010000950100009501000018
:100090009501000095010000950100009501000008
:1000A00095010000950100009501000095010000F8
:1000B00095010000950100009501000095010000E8
:1000C00080B500AF00F02AF8C046BD4680BDC046EE
:1000D00080B500AF0B4B00221A600B4B23221A6035
:1000E0000A4B0A4A126880218A431A60084B01228F
:1000F0001A60084B03221A60074B01221A60C0469F
:10010000BD4680BD408004400880044038820440E1
:1001100044800440708004407480044080B584B002
:1001200000AF174BFB60174BBB60174A154BD31A38
:100130007B6007E0BB685A1CBA60FA68511CF96022
:1001400012781A707B685A1E7A60002BF2D10F4B1E
:10015000BB600F4A0D4BD31A7B6004E0BB685A1C8E
:10016000BA6000221A707B685A1E7A60002BF5D1A3
:10017000FFF7AEFF00F012F8C046BD4604B080BDE8
:10018000000200000000001000000010000000103D
:100190000000001080B500AFFEE7C04680B582B019
:1001A00000AF124B114A126811490A431A60114BF1
:1001B000802252001A60104B00221A600E4B8022DF
:1001C00052001A600D4B7B607B68013B7B607B6853
:1001D000002BF9D1084B00221A60084B7B607B682A
:1001E000013B7B607B68002BF9D1E7E7808004400E
:1001F0004020010000800050FC3F005040420F00B2
:04000003000000C039
:00000001FF
